:020000020000FC
:0200000045C0F9
:10008C000FEF0DBF00E10EBF222404D015D023D0FA
:10009C0056D0FFCFA0E1B1E0C2E1D1E0E0E2F1E067
:1000AC003D904990430C41923D904990431C4192A4
:1000BC0010F4A1E0A0830895A0E3B1E0C2E3D1E085
:1000CC00E0E4F1E03D904990341831923D90499034
:1000DC00340831920895A0E5B1E0C3E5D1E010E019
:1000EC00399149915881C6E5D1E03D9039923D90C6
:1000FC0039923D9039928894379560F4C6E5D1E0F9
:10010C00E0E6F1E0889426E030804990341C31928E
:10011C002A95D1F78894479508F4306888945795B8
:10012C0008F44068C6E5D1E0889426E03880331C9A
:10013C0039922A95D9F713951831E9F6089500E00C
:10014C00302EA0E4B1E03D923C92A0E2B1E03D92B1
:10015C003D923C92A0E6B1E03D923D923D923D92A3
:10016C003D923D92A6E5B1E03D923D923D923D928D
:10017C003D923D92A0E3B1E0E6E5F2E035903D9290
:10018C0034903C92A2E3B1E0E8E5F2E035903D9288
:10019C0034903C9291DFA0E1B1E0EAE5F2E03590D9
:1001AC003D9234903C92A2E1B1E0C0E4D1E03990B0
:1001BC003D9238803C926EDFA0E2B1E0C0E5D1E028
:1001CC00E3E5F1E03D90399231923D9039923192D4
:1001DC003C90388230827FDF08953F924F921F927D
:1001EC000F922F92BF93AF93DF93CF93FF93EF9325
:1001FC001F932F932224C2E0D1E0E4E0F1E012E05F
:10020C00A0E0B1E022E03D904880349C31904190D8
:10021C00030C141C3080321C3082129202923196E4
:10022C002A9589F7319721961A9551F72F911F919D
:10023C00EF91FF91CF91DF91AF91BF912F900F90E4
:10024C001F904F903F900895089551FDFF1EFFFFA2
:00000001FF
