:020000020000FC
:0200000045C0F9
:0800040075C0189596C018950F
:0400780081C0189596
:10008C000FEF0DBF00E10EBF0FEF07BB00E008BB89
:10009C0000E001BB03E002BB00E608BB40E052E01D
:1000AC0070E000E000939B0001E00093980000EAF0
:1000BC000093990000E100939A000EE000939D00DC
:1000CC000AE000936A0003E009BF789401D0FECFE8
:1000DC00B0E0ABE90C9107FFFBCFB0E0ACE90C91C1
:1000EC0008BB0895F89400E009BF08BF00E008BB06
:1000FC0014E677D0523021F0503011F041E008C0B6
:10010C004395463009F004C040E018EC52E003C0BF
:10011C0014E651E000C000E208BB63D091989098BF
:10012C0003E009BF08BF78940895F89400E009BF74
:10013C0008BF00E008BB14E654D0523021F0513017
:10014C0011F041E008C04395463009F004C040E08E
:10015C0018EC52E003C014E650E000C000E408BB09
:10016C0040D09198909803E009BF08BF7894089507
:10017C000F931F930FB70F93B0E0ABE90C9107FFF0
:10018C00FBCFB0E0ACE90C9107FF01C005C0093111
:10019C0009F021C071E01FC0713009F01CC0602F44
:1001AC0070E0603949F0603A51F0603B59F06038CA
:1001BC0061F0683C69F00FC000E208BB0CC000E4C1
:1001CC0008BB09C000E608BB06C000E008BB03C0C2
:1001DC0000E908BB00C00F910FBF1F910F917894DD
:1001EC0008951F932F933F9330EE2DEE2A95F1F740
:1001FC003A95D9F71A95C1F73F912F911F91089510
:00000001FF
