:020000020000FC
:0200000045C0F9
:080004006BC018958CC0189523
:0400780077C01895A0
:10008C000FEF0DBF00E10EBF0FEF07BB00E008BB89
:10009C0000E001BB03E002BB00E608BB40E052E01D
:1000AC0000E000939B0001E00093980000EA0093AD
:1000BC00990000E900939A000EE000939D000AE07D
:1000CC0000936A0003E009BF789400E608BBFDCFFB
:1000DC00F89400E009BF08BF00E008BB14E63FD06D
:1000EC00523021F0503011F041E008C043954630B9
:1000FC0009F004C040E018EC52E003C014E651E0F3
:10010C0000C000E208BB2BD09198909803E009BF87
:10011C0008BF78940895F89400E009BF08BF00E088
:10012C0008BB14E61CD0523021F0513011F041E0E4
:10013C0008C04395463009F004C040E018EC52E08A
:10014C0003C014E650E000C000E408BB08D091984E
:10015C00909803E009BF08BF7894089508951F9301
:10016C002F933F9330EE2DEE2A95F1F73A95D9F770
:0C017C001A95C1F73F912F911F91089533
:00000001FF
