:020000020000FC
:0200000045C0F9
:10008C000FEF0DBF00E10EBF0FEF07BB00E008BB89
:10009C0000E001BB07E702BB00E000939B0001E01E
:1000AC000093980000EA0093990008E000939A00EE
:1000BC000EE000939D0001D0FECF00B30127889481
:1000CC002017C1F0202F00FF02C016D013C001FF73
:1000DC0002C015D00FC002FF02C014D00BC004FF29
:1000EC0002C013D007C005FF02C012D003C006FF28
:1000FC0001C011D000E0089530EB10D0089530E825
:10010C000DD0089530EA0AD0089530E907D008954B
:10011C0038EC04D0089538EF01D0089519E103D0DC
:10012C00132F01D00895B0E0ABE90C9105FFFBCF84
:06013C0010939C000895E1
:00000001FF
