:020000020000FC
:0200000045C0F9
:080004005AC0189571C018954F
:10008C000FEF0DBF00E10EBF0FEF07BB00E008BB89
:10009C0000E001BB03E002BB00E608BB0AE00093F2
:1000AC006A0003E009BF789400E608BBFDCFF89422
:1000BC0000E008BF0F931F930FB70F9300E008BB2E
:1000CC0014E627D000E208BB14E623D00F910FBF33
:1000DC001F910F919198909803E008BF7894089520
:1000EC00F89400E008BF0F931F930FB70F9300E035
:1000FC0008BB14E60ED000E408BB14E60AD00F913E
:10010C000FBF1F910F919198909803E008BF7894BE
:10011C0008951F932F933F9330EE2DEE2A95F1F710
:10012C003A95D9F71A95C1F73F912F911F910895E0
:00000001FF
